{
  "contractName": "MyDeFiProject",
  "abi": [
    {
      "inputs": [
        {
          "internalType": "address",
          "name": "_comptroller",
          "type": "address"
        },
        {
          "internalType": "address",
          "name": "_priceOracle",
          "type": "address"
        }
      ],
      "stateMutability": "nonpayable",
      "type": "constructor"
    },
    {
      "inputs": [],
      "name": "comptroller",
      "outputs": [
        {
          "internalType": "contract ComptrollerInterface",
          "name": "",
          "type": "address"
        }
      ],
      "stateMutability": "view",
      "type": "function",
      "constant": true
    },
    {
      "inputs": [],
      "name": "priceOracle",
      "outputs": [
        {
          "internalType": "contract PriceOracleInterface",
          "name": "",
          "type": "address"
        }
      ],
      "stateMutability": "view",
      "type": "function",
      "constant": true
    },
    {
      "inputs": [
        {
          "internalType": "address",
          "name": "cTokenAddress",
          "type": "address"
        },
        {
          "internalType": "uint256",
          "name": "underlyingAmount",
          "type": "uint256"
        }
      ],
      "name": "supply",
      "outputs": [],
      "stateMutability": "nonpayable",
      "type": "function"
    },
    {
      "inputs": [
        {
          "internalType": "address",
          "name": "cTokenAddress",
          "type": "address"
        },
        {
          "internalType": "uint256",
          "name": "cTokenAmount",
          "type": "uint256"
        }
      ],
      "name": "redeem",
      "outputs": [],
      "stateMutability": "nonpayable",
      "type": "function"
    },
    {
      "inputs": [
        {
          "internalType": "address",
          "name": "cTokenAddress",
          "type": "address"
        }
      ],
      "name": "enterMarket",
      "outputs": [],
      "stateMutability": "nonpayable",
      "type": "function"
    },
    {
      "inputs": [
        {
          "internalType": "address",
          "name": "cTokenAddress",
          "type": "address"
        },
        {
          "internalType": "uint256",
          "name": "borrowAmount",
          "type": "uint256"
        }
      ],
      "name": "borrow",
      "outputs": [],
      "stateMutability": "nonpayable",
      "type": "function"
    },
    {
      "inputs": [
        {
          "internalType": "address",
          "name": "cTokenAddress",
          "type": "address"
        },
        {
          "internalType": "uint256",
          "name": "underlyingAmount",
          "type": "uint256"
        }
      ],
      "name": "repayBorrow",
      "outputs": [],
      "stateMutability": "nonpayable",
      "type": "function"
    },
    {
      "inputs": [
        {
          "internalType": "address",
          "name": "cTokenAddress",
          "type": "address"
        }
      ],
      "name": "getMaxBorrow",
      "outputs": [
        {
          "internalType": "uint256",
          "name": "",
          "type": "uint256"
        }
      ],
      "stateMutability": "view",
      "type": "function",
      "constant": true
    }
  ],
  "bytecode": "0x60806040523480156200001157600080fd5b50604051620017e7380380620017e78339818101604052810190620000379190620000d7565b816000806101000a81548173ffffffffffffffffffffffffffffffffffffffff021916908373ffffffffffffffffffffffffffffffffffffffff16021790555080600160006101000a81548173ffffffffffffffffffffffffffffffffffffffff021916908373ffffffffffffffffffffffffffffffffffffffff160217905550505062000166565b600081519050620000d1816200014c565b92915050565b60008060408385031215620000eb57600080fd5b6000620000fb85828601620000c0565b92505060206200010e85828601620000c0565b9150509250929050565b600062000125826200012c565b9050919050565b600073ffffffffffffffffffffffffffffffffffffffff82169050919050565b620001578162000118565b81146200016357600080fd5b50565b61167180620001766000396000f3fe608060405234801561001057600080fd5b50600436106100885760003560e01c80635fe3b5671161005b5780635fe3b567146100ff578063abdb5ea81461011d578063f2b9fdb814610139578063fd1c317a1461015557610088565b80631e9a69501461008d5780632630c12f146100a95780633fe5d425146100c75780634b8a3529146100e3575b600080fd5b6100a760048036038101906100a29190610da4565b610185565b005b6100b1610262565b6040516100be919061131a565b60405180910390f35b6100e160048036038101906100dc9190610d52565b610288565b005b6100fd60048036038101906100f89190610da4565b6104af565b005b61010761060f565b60405161011491906112ff565b60405180910390f35b61013760048036038101906101329190610da4565b610633565b005b610153600480360381019061014e9190610da4565b610821565b005b61016f600480360381019061016a9190610d52565b610a0f565b60405161017c9190611415565b60405180910390f35b600082905060008173ffffffffffffffffffffffffffffffffffffffff1663db006a75846040518263ffffffff1660e01b81526004016101c59190611415565b602060405180830381600087803b1580156101df57600080fd5b505af11580156101f3573d6000803e3d6000fd5b505050506040513d601f19601f820116820180604052508101906102179190610e4a565b90506000811461025c576040517f08c379a0000000000000000000000000000000000000000000000000000000008152600401610253906113f5565b60405180910390fd5b50505050565b600160009054906101000a900473ffffffffffffffffffffffffffffffffffffffff1681565b6000600167ffffffffffffffff8111156102cb577f4e487b7100000000000000000000000000000000000000000000000000000000600052604160045260246000fd5b6040519080825280602002602001820160405280156102f95781602001602082028036833780820191505090505b5090508181600081518110610337577f4e487b7100000000000000000000000000000000000000000000000000000000600052603260045260246000fd5b602002602001019073ffffffffffffffffffffffffffffffffffffffff16908173ffffffffffffffffffffffffffffffffffffffff168152505060008060009054906101000a900473ffffffffffffffffffffffffffffffffffffffff1673ffffffffffffffffffffffffffffffffffffffff1663c2998238836040518263ffffffff1660e01b81526004016103cd91906112dd565b600060405180830381600087803b1580156103e757600080fd5b505af11580156103fb573d6000803e3d6000fd5b505050506040513d6000823e3d601f19601f820116820180604052508101906104249190610de0565b9050600081600081518110610462577f4e487b7100000000000000000000000000000000000000000000000000000000600052603260045260246000fd5b6020026020010151146104aa576040517f08c379a00000000000000000000000000000000000000000000000000000000081526004016104a190611355565b60405180910390fd5b505050565b600082905060008173ffffffffffffffffffffffffffffffffffffffff16636f307dc36040518163ffffffff1660e01b815260040160206040518083038186803b1580156104fc57600080fd5b505afa158015610510573d6000803e3d6000fd5b505050506040513d601f19601f820116820180604052508101906105349190610d7b565b905060008273ffffffffffffffffffffffffffffffffffffffff1663c5ebeaec856040518263ffffffff1660e01b81526004016105719190611415565b602060405180830381600087803b15801561058b57600080fd5b505af115801561059f573d6000803e3d6000fd5b505050506040513d601f19601f820116820180604052508101906105c39190610e4a565b905060008114610608576040517f08c379a00000000000000000000000000000000000000000000000000000000081526004016105ff90611395565b60405180910390fd5b5050505050565b60008054906101000a900473ffffffffffffffffffffffffffffffffffffffff1681565b600082905060008173ffffffffffffffffffffffffffffffffffffffff16636f307dc36040518163ffffffff1660e01b815260040160206040518083038186803b15801561068057600080fd5b505afa158015610694573d6000803e3d6000fd5b505050506040513d601f19601f820116820180604052508101906106b89190610d7b565b90508073ffffffffffffffffffffffffffffffffffffffff1663095ea7b385856040518363ffffffff1660e01b81526004016106f59291906112b4565b602060405180830381600087803b15801561070f57600080fd5b505af1158015610723573d6000803e3d6000fd5b505050506040513d601f19601f820116820180604052508101906107479190610e21565b5060008273ffffffffffffffffffffffffffffffffffffffff16630e752702856040518263ffffffff1660e01b81526004016107839190611415565b602060405180830381600087803b15801561079d57600080fd5b505af11580156107b1573d6000803e3d6000fd5b505050506040513d601f19601f820116820180604052508101906107d59190610e4a565b90506000811461081a576040517f08c379a000000000000000000000000000000000000000000000000000000000815260040161081190611395565b60405180910390fd5b5050505050565b600082905060008173ffffffffffffffffffffffffffffffffffffffff16636f307dc36040518163ffffffff1660e01b815260040160206040518083038186803b15801561086e57600080fd5b505afa158015610882573d6000803e3d6000fd5b505050506040513d601f19601f820116820180604052508101906108a69190610d7b565b90508073ffffffffffffffffffffffffffffffffffffffff1663095ea7b385856040518363ffffffff1660e01b81526004016108e39291906112b4565b602060405180830381600087803b1580156108fd57600080fd5b505af1158015610911573d6000803e3d6000fd5b505050506040513d601f19601f820116820180604052508101906109359190610e21565b5060008273ffffffffffffffffffffffffffffffffffffffff1663a0712d68856040518263ffffffff1660e01b81526004016109719190611415565b602060405180830381600087803b15801561098b57600080fd5b505af115801561099f573d6000803e3d6000fd5b505050506040513d601f19601f820116820180604052508101906109c39190610e4a565b905060008114610a08576040517f08c379a00000000000000000000000000000000000000000000000000000000081526004016109ff906113d5565b60405180910390fd5b5050505050565b60008060008060008054906101000a900473ffffffffffffffffffffffffffffffffffffffff1673ffffffffffffffffffffffffffffffffffffffff16635ec88c79306040518263ffffffff1660e01b8152600401610a6e9190611299565b60606040518083038186803b158015610a8657600080fd5b505afa158015610a9a573d6000803e3d6000fd5b505050506040513d601f19601f82011682018060405250810190610abe9190610e73565b92509250925060008314610b07576040517f08c379a0000000000000000000000000000000000000000000000000000000008152600401610afe90611335565b60405180910390fd5b60008114610b4a576040517f08c379a0000000000000000000000000000000000000000000000000000000008152600401610b41906113b5565b60405180910390fd5b60008211610b8d576040517f08c379a0000000000000000000000000000000000000000000000000000000008152600401610b8490611375565b60405180910390fd5b6000600160009054906101000a900473ffffffffffffffffffffffffffffffffffffffff1673ffffffffffffffffffffffffffffffffffffffff1663fc57d4df876040518263ffffffff1660e01b8152600401610bea9190611299565b60206040518083038186803b158015610c0257600080fd5b505afa158015610c16573d6000803e3d6000fd5b505050506040513d601f19601f82011682018060405250810190610c3a9190610e4a565b90508083610c4891906114d7565b945050505050919050565b6000610c66610c6184611461565b611430565b90508083825260208201905082856020860282011115610c8557600080fd5b60005b85811015610cb55781610c9b8882610d3d565b845260208401935060208301925050600181019050610c88565b5050509392505050565b600081359050610cce816115f6565b92915050565b600081519050610ce3816115f6565b92915050565b600082601f830112610cfa57600080fd5b8151610d0a848260208601610c53565b91505092915050565b600081519050610d228161160d565b92915050565b600081359050610d3781611624565b92915050565b600081519050610d4c81611624565b92915050565b600060208284031215610d6457600080fd5b6000610d7284828501610cbf565b91505092915050565b600060208284031215610d8d57600080fd5b6000610d9b84828501610cd4565b91505092915050565b60008060408385031215610db757600080fd5b6000610dc585828601610cbf565b9250506020610dd685828601610d28565b9150509250929050565b600060208284031215610df257600080fd5b600082015167ffffffffffffffff811115610e0c57600080fd5b610e1884828501610ce9565b91505092915050565b600060208284031215610e3357600080fd5b6000610e4184828501610d13565b91505092915050565b600060208284031215610e5c57600080fd5b6000610e6a84828501610d3d565b91505092915050565b600080600060608486031215610e8857600080fd5b6000610e9686828701610d3d565b9350506020610ea786828701610d3d565b9250506040610eb886828701610d3d565b9150509250925092565b6000610ece8383610eda565b60208301905092915050565b610ee381611508565b82525050565b610ef281611508565b82525050565b6000610f038261149d565b610f0d81856114b5565b9350610f188361148d565b8060005b83811015610f49578151610f308882610ec2565b9750610f3b836114a8565b925050600181019050610f1c565b5085935050505092915050565b610f5f81611550565b82525050565b610f6e81611574565b82525050565b6000610f816054836114c6565b91507f636f6d7074726f6c6c6572236765744163636f756e744c69717569646974792860008301527f29206661696c65642e2073656520436f6d706f756e64204572726f725265706f60208301527f727465722e736f6c20666f722064657461696c730000000000000000000000006040830152606082019050919050565b600061100d604c836114c6565b91507f636f6d7074726f6c6c657223656e7465724d61726b65742829206661696c656460008301527f2e2073656520436f6d706f756e64204572726f725265706f727465722e736f6c60208301527f20666f722064657461696c7300000000000000000000000000000000000000006040830152606082019050919050565b60006110996020836114c6565b91507f6163636f756e7420646f6573206e6f74206861766520636f6c6c61746572616c6000830152602082019050919050565b60006110d96042836114c6565b91507f63546f6b656e23626f72726f772829206661696c65642e2073656520436f6d7060008301527f6f756e64204572726f725265706f727465722e736f6c20666f7220646574616960208301527f6c730000000000000000000000000000000000000000000000000000000000006040830152606082019050919050565b60006111656012836114c6565b91507f6163636f756e7420756e646572776174657200000000000000000000000000006000830152602082019050919050565b60006111a56040836114c6565b91507f63546f6b656e236d696e742829206661696c65642e2073656520436f6d706f7560008301527f6e64204572726f725265706f727465722e736f6c20666f722064657461696c736020830152604082019050919050565b600061120b6047836114c6565b91507f63546f6b656e2372656465656d2829206661696c65642e2073656520436f6d7060008301527f6f756e64204572726f725265706f727465722e736f6c20666f72206d6f72652060208301527f64657461696c73000000000000000000000000000000000000000000000000006040830152606082019050919050565b61129381611546565b82525050565b60006020820190506112ae6000830184610ee9565b92915050565b60006040820190506112c96000830185610ee9565b6112d6602083018461128a565b9392505050565b600060208201905081810360008301526112f78184610ef8565b905092915050565b60006020820190506113146000830184610f56565b92915050565b600060208201905061132f6000830184610f65565b92915050565b6000602082019050818103600083015261134e81610f74565b9050919050565b6000602082019050818103600083015261136e81611000565b9050919050565b6000602082019050818103600083015261138e8161108c565b9050919050565b600060208201905081810360008301526113ae816110cc565b9050919050565b600060208201905081810360008301526113ce81611158565b9050919050565b600060208201905081810360008301526113ee81611198565b9050919050565b6000602082019050818103600083015261140e816111fe565b9050919050565b600060208201905061142a600083018461128a565b92915050565b6000604051905081810181811067ffffffffffffffff82111715611457576114566115c7565b5b8060405250919050565b600067ffffffffffffffff82111561147c5761147b6115c7565b5b602082029050602081019050919050565b6000819050602082019050919050565b600081519050919050565b6000602082019050919050565b600082825260208201905092915050565b600082825260208201905092915050565b60006114e282611546565b91506114ed83611546565b9250826114fd576114fc611598565b5b828204905092915050565b600061151382611526565b9050919050565b60008115159050919050565b600073ffffffffffffffffffffffffffffffffffffffff82169050919050565b6000819050919050565b600061155b82611562565b9050919050565b600061156d82611526565b9050919050565b600061157f82611586565b9050919050565b600061159182611526565b9050919050565b7f4e487b7100000000000000000000000000000000000000000000000000000000600052601260045260246000fd5b7f4e487b7100000000000000000000000000000000000000000000000000000000600052604160045260246000fd5b6115ff81611508565b811461160a57600080fd5b50565b6116168161151a565b811461162157600080fd5b50565b61162d81611546565b811461163857600080fd5b5056fea264697066735822122025baaac5a15ed5e38d4e69b17b118befc66d71a40f5bb87cd1cbd3d8e0decc1164736f6c63430008000033",
  "immutableReferences": {},
  "source": "// SPDX-License-Identifier: MIT\npragma solidity ^0.8.0;\n\nimport \"@openzeppelin/contracts/token/ERC20/IERC20.sol\";\nimport \"./CTokenInterface.sol\";\nimport \"./ComptrollerInterface.sol\";\nimport \"./PriceOracleInterface.sol\";\n\ncontract MyDeFiProject {\n    ComptrollerInterface public comptroller;\n    PriceOracleInterface public priceOracle;\n\n    constructor(address _comptroller, address _priceOracle) {\n        comptroller = ComptrollerInterface(_comptroller);\n        priceOracle = PriceOracleInterface(_priceOracle);\n    }\n\n    function supply(address cTokenAddress, uint256 underlyingAmount) public {\n        CTokenInterface cToken = CTokenInterface(cTokenAddress);\n        address underlyingAddress = cToken.underlying();\n        IERC20(underlyingAddress).approve(cTokenAddress, underlyingAmount);\n        uint256 result = cToken.mint(underlyingAmount);\n        require(\n            result == 0,\n            \"cToken#mint() failed. see Compound ErrorReporter.sol for details\"\n        );\n    }\n\n    function redeem(address cTokenAddress, uint256 cTokenAmount) external {\n        CTokenInterface cToken = CTokenInterface(cTokenAddress);\n        uint256 result = cToken.redeem(cTokenAmount);\n        require(\n            result == 0,\n            \"cToken#redeem() failed. see Compound ErrorReporter.sol for more details\"\n        );\n    }\n\n    function enterMarket(address cTokenAddress) external {\n        address[] memory markets = new address[](1);\n        markets[0] = cTokenAddress;\n        uint256[] memory results = comptroller.enterMarkets(markets);\n        require(\n            results[0] == 0,\n            \"comptroller#enterMarket() failed. see Compound ErrorReporter.sol for details\"\n        );\n    }\n\n    function borrow(address cTokenAddress, uint256 borrowAmount) external {\n        CTokenInterface cToken = CTokenInterface(cTokenAddress);\n        address underlyingAddress = cToken.underlying();\n        uint256 result = cToken.borrow(borrowAmount);\n        require(\n            result == 0,\n            \"cToken#borrow() failed. see Compound ErrorReporter.sol for details\"\n        );\n    }\n\n    function repayBorrow(address cTokenAddress, uint256 underlyingAmount)\n        external\n    {\n        CTokenInterface cToken = CTokenInterface(cTokenAddress);\n        address underlyingAddress = cToken.underlying();\n        IERC20(underlyingAddress).approve(cTokenAddress, underlyingAmount);\n        uint256 result = cToken.repayBorrow(underlyingAmount);\n        require(\n            result == 0,\n            \"cToken#borrow() failed. see Compound ErrorReporter.sol for details\"\n        );\n    }\n\n    function getMaxBorrow(address cTokenAddress)\n        external\n        view\n        returns (uint256)\n    {\n        (uint256 result, uint256 liquidity, uint256 shortfall) =\n            comptroller.getAccountLiquidity(address(this));\n        require(\n            result == 0,\n            \"comptroller#getAccountLiquidity() failed. see Compound ErrorReporter.sol for details\"\n        );\n        require(shortfall == 0, \"account underwater\");\n        require(liquidity > 0, \"account does not have collateral\");\n        uint256 underlyingPrice = priceOracle.getUnderlyingPrice(cTokenAddress);\n        return liquidity / underlyingPrice;\n    }\n}\n",
  "sourcePath": "/Users/OOM/Desktop/02 Integration with DeFi projects/Compound/contracts/MyDefiProject.sol",
  "compiler": {
    "name": "solc",
    "version": "0.8.0+commit.c7dfd78e.Emscripten.clang"
  },
  "schemaVersion": "3.4.1",
  "updatedAt": "2021-06-08T17:45:33.638Z",
  "networkType": "ethereum",
  "devdoc": {
    "kind": "dev",
    "methods": {},
    "version": 1
  },
  "userdoc": {
    "kind": "user",
    "methods": {},
    "version": 1
  }
}